:020000040800F2
:1000000018050020C5010008132200085F1B000826
:10001000112200088D0A0008792500080000000060
:10002000000000000000000000000000172200088F
:10003000190B000800000000152200081922000812
:10004000DF010008DF010008DF010008DF01000810
:10005000DF010008DF010008DF010008DF01000800
:10006000DF010008DF010008DF010008DF010008F0
:10007000DF010008DF010008DF010008DF010008E0
:10008000DF010008DF010008DF010008DF010008D0
:10009000DF010008DF010008DF010008DF010008C0
:1000A000DF010008DF010008DF010008DF010008B0
:1000B000DF010008DF010008DF010008DF010008A0
:1000C000DF010008DF010008DF010008DF01000890
:1000D000DF010008DF010008DF010008DF01000880
:1000E000DF010008DF010008DF010008DF01000870
:1000F000DF010008DF010008DF010008DF01000860
:10010000DF010008DF010008DF010008DF0100084F
:10011000DF010008DF010008DF010008DF0100083F
:10012000DF010008910A0008DF010008DF01000874
:10013000DF010008DF010008DF010008DF0100081F
:10014000DF010008DF010008DF010008DF0100080F
:10015000DF010008DF010008DF0100086D2500084D
:10016000DF010008DF010008DF010008DF010008EF
:10017000DF010008DF010008DF01000800000000C7
:10018000DF010008DF010008DF010008DF010008CF
:10019000DF010008DF010008DF010008DF010008BF
:1001A000DF010008DF010008DF010008DFF810D0E0
:1001B00000F0B8FB00480047992E0008AFF300801C
:1001C000180500200648804706480047FEE7FEE77E
:1001D000FEE7FEE7FEE7FEE7FEE7FEE7FEE7FEE7F7
:1001E0009D220008AD0100082DE9F05F05460020C2
:1001F00092469B4688460646814640241BE0284698
:1002000041464746224600F053FA53465A46C01A22
:10021000914110D311461846224600F03AFA2D1AA1
:1002200067EB01084F4622460120002100F031FA19
:1002300017EB00094E41201EA4F10104DFDC484603
:1002400031462A464346BDE8F09FD2B201E000F8AD
:10025000012B491EFBD270470022F6E710B513466A
:100260000A4604461946FFF7F0FF204610BD2DE967
:10027000F04791460F4680460446002614F8015B7D
:100280002DB100F037FA0068405DC007F6D12B2D84
:1002900002D02D2D18D0641E4A463946204600F063
:1002A0002DFA27B13968A14201D1C7F80080710544
:1002B0004FF002040BD54042002803DD02F088F91C
:1002C0000460A007BDE8F08746F48066E4E70028F4
:1002D000F8DA02F07DF904606FF00040F2E72DE9F2
:1002E000FE4F804681EA0300C00F0C46009021F0CB
:1002F000004123F00045B8EB0200A94105D2404679
:10030000214690461C460B46024623F0004010430F
:1003100047D0270DC7F30A00C3F30A510290401AD1
:10032000019040286BDAC3F3130040F4801B00985F
:10033000924620B10023D2EB030A63EB0B0B01982A
:100340005946C0F14002504600F0A3F906460D465A
:1003500050465946019A00F0BBF910EB0800614184
:10036000002487EA115284EAE7731A4340D0009AC6
:1003700062B3019A012A4FEA075215DC001B61EBB8
:1003800002014FF0004202EA0752CDE90042001C90
:1003900041F5801132462B4600F045FA03B0BDE826
:1003A000F08F40462146F9E7001B61EB0201001C7B
:1003B00041F5801300185B412018A2F5001747EBA8
:1003C000030140EAD570B6196D4111E06D084FEA9E
:1003D000360645EAC0754FEA0752001B61EB020181
:1003E000001C41F5801149084FEA300000195141C5
:1003F00032462B4603B0BDE8F04F00F005BA009836
:10040000012240000023D0EB020263EBE07300986E
:1004100021464FEAE074B8EB000061EB0401E9E724
:1004200083F000435BE781F0004158E72DE9FE4F80
:1004300081EA030404F0004421F0004100944FF0ED
:10044000000B23F0004350EA01045ED052EA03049B
:100450005BD0C3F30A54C1F30A552C44A4F2F3341D
:100460000194A0FB0254C1F3130141F48011C3F3C2
:10047000130343F4801301FB024400FB034E840A80
:10048000970A44EA815447EA8357A4FB0768029518
:100490008D0A05FB07854FEA932C04FB0C542705B6
:1004A000029D4FEA065847EA1637B5EB08056EEB92
:1004B000070C870E920E47EA811742EA8312A7FBC8
:1004C0000201B6EB0B0164EB00042B0D43EA0C3385
:1004D0005E1844EB1C50DA465146E7FB0201C5F3B7
:1004E00013044FEA0B3343EA14534FEA0432019CDE
:1004F00043EA0603A4F10C040294009CCDE900B485
:1005000000F091F903B0BDE8F08F00200146F9E753
:100510002DE9F04D81EA030404F0004B21F0004581
:1005200014464FF0000A23F0004150EA050220D0A3
:1005300054EA01021DD0C5F30A570246C5F313035E
:10054000C1F31300C1F30A5640F4801543F480133D
:10055000A7EB0608101BD64608F2FD3873EB050022
:1005600002D308F1010801E092185B41B8F1000FD5
:1005700003DA00200146BDE8F08D00204FF4801121
:10058000064684460EE0171B73EB050705D3121BC6
:1005900063EB050306434CEA010C49084FEA3000BF
:1005A00092185B4150EA0107EDD152EA030012D0E4
:1005B00082EA040083EA0501084305D0101BAB4121
:1005C00006D20122002306E000224FF0004302E0A1
:1005D0006FF0010253101AEB06004CEB085110EBC0
:1005E0000A0041EB0B01BDE8F04D00F00DB90EB56E
:1005F00040F2334102910021CDE900110A460B4639
:1006000000F011F903B000BD00F0004230F00040EE
:100610000AD0C10D01F56071C0F3160042EA015124
:10062000C20840071143704700200146704701F09F
:10063000004330B421F0004150EA010206D00A0D17
:10064000A2F56072C1F31301002A02DC30BC002065
:100650007047440F44EAC104C100E01830BC00EB0D
:10066000C25000F09AB830B50B4601460020202257
:10067000012409E021FA02F59D4205D303FA02F5AF
:10068000491B04FA02F52844151EA2F10102F1DC0F
:1006900030BD202A04DB203A00FA02F10020704726
:1006A0009140C2F1200320FA03F3194390407047B0
:1006B000202A04DB203A21FA02F00021704721FAB7
:1006C00002F3D040C2F1200291400843194670471E
:1006D000202A06DBCB17203A41FA02F043EAE07306
:1006E00006E041FA02F3D040C2F1200291400843F3
:1006F00019467047004870476C3100082DE9F05FDB
:1007000082460078002715468B460AF10104B94657
:10071000302801D09DB113E014F8010B012778288F
:1007200003D0582801D045B10AE00DB1102D07D1F2
:100730000027102514F8010B02E0082500E00A2527
:100740000026B0460EE005FB080005FB06F1012778
:1007500001EB10461FFA80F8B6F5803F00D3B9468A
:1007600014F8010B294600F0EFF80028EBDABBF192
:10077000000F05D00FB1641E00E05446CBF80040D6
:10078000B9F1000F06D001F023FF02210160C81E5D
:10079000BDE8F09F48EA0640FAE70029A8BF704785
:1007A000401C490008BF20F00100704710B4B0FAA7
:1007B00080FC00FA0CF050EA010404BF10BC704742
:1007C00049B1CCF1200421FA04F411FA0CF118BF5C
:1007D000012121430843A3EB0C01CB1D4FEA00612B
:1007E0004FEA102042BF002010BC704700EBC350FE
:1007F00010440029A4BF10BC7047401C490008BF2A
:1008000020F0010010BC704710B5141E73F10004F5
:1008100008DA401C41F1000192185B411A4301D1F2
:1008200020F0010010BD2DE9F04D92469B4611B11C
:10083000B1FA81F202E0B0FA80F220329046FFF77E
:1008400028FF04460F4640EA0A0041EA0B015346DE
:100850005A46084313D0114653EA010019D0C8F193
:1008600040025046FFF724FF05460E4650465946C3
:100870004246FFF70EFF084305D0012004E0204662
:100880003946BDE8F08D0020054346EAE0762C436A
:1008900037430A986305E40AA0EB08000022FD0A2A
:1008A00044EA47540A3002D500200146E9E7010531
:1008B00010196941DDE9084500196941BDE8F04DAD
:1008C000A2E7C1F30A52C1F3130140F2FF3341F42E
:1008D00080119A4202DA00200146704740F2334309
:1008E0009A42A2F2334202DC5242FFF7E1BEFFF726
:1008F000D0BE000030B5041E71F1000404DB4FF0DF
:100900000044404264EB0101141E73F1000405DB56
:100910001C464FF00043524263EB0403994208BF68
:10092000904230BD064C074D06E0E06840F0010300
:1009300094E8070098471034AC42F6D3FFF73AFC2E
:1009400070310008903100083A2800D2303820F089
:100950002002412A01D3A2F13700884201D34FF08F
:10096000FF307047464910B54A6822F440324A6069
:100970004A6843681A434A6001684A6822F48072F0
:100980004A6001684A68036942EA03224A600168D2
:100990004A6822F040724A6001684A6883681A43D4
:1009A0004A6001688A6822F400628A6001688A6885
:1009B000C3681A438A60816A6FF07062D14201682D
:1009C0008A6822F070628A6001688A680CD0836A43
:1009D0001A438A6001688A6822F040528A6001687E
:1009E0008A68C36A1A4301E022F040528A600168B3
:1009F0008A6822F002028A6001688A68037E42EAFD
:100A000043028A6090F82010002901684A680FD0DC
:100A100042F400624A6001684A6822F460424A6017
:100A200001684A68174C436A04EB43331A4301E0F8
:100A300022F400624A600168CA6A22F47002CA6243
:100A40000168CA6A838B104C04EB03531A43CA62D1
:100A500001688A6822F400728A6001688A6890F8E6
:100A6000303042EA43228A6001688A6822F4806258
:100A70008A6001688A68406942EA8020886010BD07
:100A80000023014000E0FFFF0000F0FFFEE7000050
:100A9000014800F063B90000B80000200168182385
:100AA000CAB2103AB2FBF3F2054B6FF30901032A05
:100AB0009B5CC36500D9091D81650846704700002D
:100AC000C830000810B5014600208B698A6A4FF0D3
:100AD000C07453B1B3F5005F15D072B1012A0CD0C8
:100AE000022A0AD0032A09D104E01AB1012A06D049
:100AF000022A03D1C96AC90100D5012010BDC96A03
:100B0000A142FAD010BD002AF7D0012AF2D0022A61
:100B1000F3D0032AF3D010BD704772B6FEE7000091
:100B200078B50024009490F83C20012A19D00122C5
:100B300080F83C200A6807230568092A13D9EE6863
:100B40000A3A02EB420293409E43EE600B788A68B9
:100B50000A3B03EB43039A400368DD682A43DA60EB
:100B600010E0022078BD2E6902EB420293409E43C2
:100B70002E610B788A6803EB43039A4003681D6972
:100B80002A431A614A681F23072A13D205686E6B2D
:100B9000521E02EB820293409E436E630A8893B218
:100BA0000A79521E02EB820293400268556B2B4376
:100BB000536327E005680D2A12D22E6BD21F02EB79
:100BC000820293409E432E630B790A88DB1F92B208
:100BD00003EB83039A4003681D6B2A431A6311E0F9
:100BE000EE6A0D3A02EB820293409E43EE620B796D
:100BF0000A880D3B92B203EB83039A400368DD6AD7
:100C00002A43DA621B4B0568194A9D420AD10D68D6
:100C1000122D07D1556825F400055560556845F437
:100C20008005556005689D421DD1134D0B68AB4290
:100C300001D0112B17D1536823F4800353605368FC
:100C400043F4000353600968A9420CD10B490C4AD4
:100C50000968B1FBF2F101EB8101490000E0491E96
:100C600000910029FBD180F83C40002078BD0000B5
:100C70000023014000200140120000102800002045
:100C800040420F0070B504004FF0000503D0206C07
:100C9000002610B107E0012070BD204600F01CF8CE
:100CA000666484F83C60206CC00610D4206C20F48C
:100CB000885040F0020020642046FFF753FE66642F
:100CC000206C20F0020040F00100206400E00125CB
:100CD00084F83C60284670BD10B586B004461421E7
:100CE0006846FFF7B9FA1149206888421CD11048BC
:100CF0000021026842F480720260006800F4807093
:100D000005900B481438026842F001020260006846
:100D100000F001000590082000900320CDE90101BA
:100D20006946044800F066F906B010BD0020014095
:100D3000443802400000024090F83510022903D0E8
:100D40008021416501207047052180F83510006839
:100D5000016821F001010160002070472DE9F8438E
:100D600004464FF00009CDF8009063484FF4165147
:100D7000A56D0068B0FBF1F72E6894F85C100820B0
:100D800000FA01F131420FD021680A6852070BD5F1
:100D90000A6822F004020A6094F85C108840A86097
:100DA000606D40F00100606594F85C104FF0010840
:100DB00008FA01F0304208D021684969090604D5D3
:100DC000A860606D40F00200606594F85C1004203B
:100DD0008840304208D021680968890704D5A86096
:100DE000606D40F00400606594F85C10102088404D
:100DF000304218D021680968090714D5A860206816
:100E00000168490304D50068000308D5A16C07E018
:100E10000168C90503D4016821F008010160216C53
:100E200009B12046884794F85C1020208840304261
:100E300031D021680968C9062DD5A86094F835001D
:100E400005282068016806D0490347D500680003DB
:100E50001DD4616C1CE021F016010160206841691D
:100E600021F080014161206C08B9A06C20B120689C
:100E7000016821F00801016094F85C103F2088406F
:100E8000A86084F8349084F83580216D1FE0E16B10
:100E900009B120468847606D00282BD0606DC007DF
:100EA00014D0052084F835002068016821F0010184
:100EB00001600098401C0090B84203D82068006888
:100EC000C007F6D184F8349084F83580E16C0029AD
:100ED00010D001B02046BDE8F04308470168C905BD
:100EE000D5D4016821F01001016084F8349084F8B1
:100EF0003580CCE7BDE8F883280000202DE9F041DB
:100F0000044600F067F906465CB1002584F83450C9
:100F1000022084F835002068016821F00101016099
:100F20000DE00120BDE8F08100F054F9801B052898
:100F300005D920206065032084F83500F2E7206899
:100F40000068C007F0D12268116820480140D4E948
:100F500001031843D4E90336334318436369184344
:100F6000A3691843E3691843236A18430843616A75
:100F7000042903D1D4E90B131943084310602068F6
:100F80004069666A20F0070130460E4301270428B5
:100F90000CD1A06A0643E06A40B12046FFF792FDFB
:100FA00020B14020606584F83570BAE7206846615A
:100FB0002046FFF773FD94F85C203F21914081604B
:100FC000656584F835700020ACE700003F8010F0C4
:100FD00070B5044600F0FEF80546601C02D00448D7
:100FE0000078044400F0F6F8401BA042FAD370BD2C
:100FF0001C0000202DE9F84F00224FF001080325C6
:101000004FF00F0E0B6808FA02F42340A3426ED192
:101010004E68012E05D0022E03D0112E01D0122EC3
:1010200012D186684FEA420C05FA0CF7BE43CF682E
:1010300007FA0CF7374387604668A6430C79C4F378
:101040000014944034434460C668570005FA07FC16
:101050008C6826EA0C06BC403443C4604C68022C01
:1010600001D0122C13D1D40800EB8404A346D4F889
:10107000209054074FEAD46A0EFA0AF629EA0609C4
:101080000E6906FA0AF646EA0906CBF820600468FB
:101090000E7924EA0C0406F00306BE4026430660DF
:1010A0004C68E4006FD53B4C266846F480462660C9
:1010B000246822F0030604F480440094364C34443F
:1010C000A446D4F808489607360F0EFA06F7BC4334
:1010D000324FB84201D100272EE0314FB84201D142
:1010E000012729E02F4FB84202D1022724E04AE02D
:1010F0002D4FB84201D103271EE02C4FB84201D139
:10110000042719E02A4FB84201D1052714E0294FDE
:10111000B84201D106270FE0274FB84201D1072777
:101120000AE0264FB84201D1082705E0244FB84213
:1011300001D1092700E00A27B7402743CCF80878F7
:10114000204E34684F689C43FF0300D51C43346035
:101150001C4E361D34684F689C43BF0300D51C43AA
:101160003460184E083634684F689C43FF0200D53F
:101170001C433460134E0C3634684F689C43BF02E6
:1011800000D51C433460521C102AFFF43BAFBDE86D
:10119000F88F000044380240003001400000024057
:1011A0000004024000080240000C0240001002400F
:1011B0000014024000180240001C024000200240BF
:1011C00000240240003C01400AB1816170470904DB
:1011D000FBE7000001488068704700001C00002009
:1011E0000248816802781144816070471C00002029
:1011F0000B4810B5016841F400710160016841F4C9
:1012000080610160016841F480710160032000F099
:101210006FF8002000F006F800F024F8002010BD60
:10122000003C024070B50D4D04464FF47A712878A9
:10123000B1FBF0F00A490968B1FBF0F000F004FBE3
:1012400048B9102C07D200222146501E00F030F879
:1012500000206C6070BD012070BD00001C000020EB
:10126000280000200A4808B5016841F48041016067
:10127000006800F4804000900548001F016841F0BC
:1012800080510160006800F08050009008BD0000AF
:1012900044380240002809DB00F01F020121914080
:1012A0004009800000F1E020C0F800117047000004
:1012B000F0B40E4B1B680C46C3F30223C3F10705C1
:1012C000042D00D90425191D072901D2002300E0AF
:1012D000DB1E012606FA05F1491E214099409E4079
:1012E000761E16403143F0BC01F062B90CED00E00F
:1012F000064900F0070208684FF6FF03184040EA6D
:101300000220034A10430860704700000CED00E023
:101310000000FA052DE9F0470E46050065D0DFF81C
:101320001481D8F80000F7B200F00F00B04207D2E5
:1013300088F80070D8F8000000F00F00B04254D1D7
:1013400028683D4C810712D5400703D5206840F43A
:10135000E05020602878000703D5206840F4604002
:1013600020602068A96820F0F000084320602878F9
:10137000C0072DD0304968680839012812D00228EA
:1013800013D0032811D00968890700292DDA2168B4
:1013900021F0030101432160FFF71CFF814641F268
:1013A000883A0EE009688903EFE709688901ECE7EC
:1013B000FFF710FFA0EB0901514502D90320BDE85A
:1013C000F0872068696800F00C00B0EB810FEFD166
:1013D000D8F80010404601F00F01B14207D907705C
:1013E000006800F00F00B04201D00120E7E7287844
:1013F000400705D52068E96820F4E05008432060E4
:101400002878000706D52068296920F4604040EA62
:10141000C100206000F038F82168084AC1F30311C8
:10142000515CC8400649086006480068FFF7FAFEAC
:101430000020C4E7003C024008380240D0300008D9
:1014400028000020200000200448054900680968A1
:10145000044AC1F38221515CC84070472800002033
:1014600008380240E030000804480549006809686F
:10147000044AC1F34231515CC84070472800002043
:1014800008380240E0300008154810B5006810F038
:101490000C02144813D01449042A0FD0082A0ED184
:1014A0000F4C241F2268236802F03F025B0207D51D
:1014B0002068C0F38810A0FB010106E0084610BDBB
:1014C0002168C1F38811A1FB00010023FEF78CFE07
:1014D0002168C1F30141491C4900B0FBF1F010BD86
:1014E000083802400024F40040787D012DE9F84FCF
:1014F00004006ED02078DFF83C93C007A9F1040502
:101500004AD009F104000168C1F38101012908D022
:101510000068C0F3810002280AD1D9F80000400217
:1015200006D52868800337D560680028E1D033E00D
:101530006068B0F5803F10D0B0F5A02F286810D0BB
:1015400020F480302860286820F4802028606068BB
:10155000A8B1FFF73FFE06460DE0286840F4803052
:10156000F4E740F480202860F7E700BFFFF732FE81
:10157000801B642873D828688003F7D50CE0FFF738
:1015800029FE064605E000BFFFF724FE801B642805
:10159000F0D828688003F7D42078DFF89C82800791
:1015A0004FF0000A3ED5A348001D016811F00C0F52
:1015B00008D00068C0F3810002280BD1D9F80000E0
:1015C000400207D42868800716D5E068012800D1BA
:1015D00012E02BE1E068B8B10120C8F80000FFF785
:1015E000F9FD064605E000BFFFF7F4FD801B022869
:1015F000C0D828688007F7D52868216920F0F8004E
:1016000040EAC10028600DE0C8F800A0FFF7E2FD45
:10161000064604E0FFF7DEFD801B02281FD828687D
:101620008007F7D42078000722D5824E834861696D
:10163000703671B101210160FFF7CCFD074604E06F
:10164000FFF7C8FDC01B022809D830688007F7D50E
:101650000EE0C0F800A0FFF7BDFD074605E082E000
:10166000FFF7B8FDC01B02287DD830688007F7D48B
:101670002078400768D5DFF8BCB100270BF13C0BA0
:10168000DBF80000C0000BD4DBF8001041F0805103
:10169000CBF80010DBF80000012700F0805000902C
:1016A000674E3068C00510D4306840F480703060F8
:1016B000FFF790FD009005E0FFF78CFD0099401AC0
:1016C000022850D83068C005F6D55A4EA0686C364E
:1016D00001280FD00528306810D020F001003060BC
:1016E000306820F004003060A068B8B1FFF772FDE8
:1016F00000900FE0306840F00100F4E740F0040093
:101700003060F7E7FFF766FD0099411A41F2883033
:10171000814266D830688007F4D50EE0FFF75AFDA5
:10172000009007E0FFF756FD0099411A41F288301A
:10173000814256D830688007F4D42FB1DBF800100E
:1017400021F08051CBF80010A069C8B33949091DB8
:101750000968C1F3810102294AD00228504607D006
:10176000C8F8600000E03CE0FFF734FD04463BE0D1
:101770004746C8F86000FFF72DFD064605E000BFAC
:10178000FFF728FD801B02282BD828688001F7D49A
:10179000D4E907010843A16A2A4A490802EB01413A
:1017A000626A41EA8211084394F82C1040EA016110
:1017B000C9F8001001203866FFF70CFD044606E06A
:1017C00036E000BFFFF706FD001B022809D8286895
:1017D0008001F7D52CE000BFFFF7FCFC001B0228BE
:1017E00002D90320BDE8F88F28688001F4D41FE0F7
:1017F0000128F7D0D9F80000E26900F48001914295
:1018000014D1226A00F03F0191420FD147F6C07116
:10181000626A0140914209D1A26A00F440319142CA
:1018200004D1E16A00F07060884201D00120D9E75C
:101830000020D7E70438024000004742800E4742AC
:10184000007000400000FFFF10B5401EB0F1807F27
:1018500001D3012010BD4FF0E02460610F2160171B
:1018600000F0A6FE0020A06107202061002010BD2E
:101870007047000070B5026804461068D16853696B
:1018800010F00F0F52D003F0010501F490762E43B3
:101890005FD0C20705D0CA0503D5E26B42F0010252
:1018A000E263420705D5DA0703D0E26B42F0020299
:1018B000E263820705D5DA0703D0E26B42F0040247
:1018C000E263020707D501F020022A4303D0E26B4E
:1018D00042F00802E263E26B002A33D0800604D5AE
:1018E000880602D5204600F0FDFC20684069E16BC7
:1018F000C0F38010090700D428B3204600F0E4FCB0
:101900002068416949061AD5416921F040014161C9
:10191000606BA0B11B490165606BFFF70DFA0028F1
:1019200010D0606B016DBDE870400847830610D58C
:101930008B060ED52046BDE8704000F0D3BC204693
:10194000FFF796FF70BD2046FFF792FF0020E0638F
:1019500070BD030606D50B0604D52046BDE87040D1
:1019600000F0A0BD4006F3D54806F1D5D168204669
:1019700021F04001D160202184F8391000F0EEF808
:1019800070BD0000B922000870B5040004D094F8BE
:101990003900002510B106E0012070BD84F83850F0
:1019A000204600F023F8242084F839002068C1681C
:1019B00021F40051C160204600F0E0FC206801697C
:1019C00021F4904101612068416921F02A014161BF
:1019D0002068C16841F40051C160E563202084F8AB
:1019E000390084F83A00002070BD000070B586B060
:1019F000064614216846FEF72FFC234930688842CA
:101A00003FD122480025016841F0200101600068B3
:101A100000F0200005901D481438016841F00401D1
:101A200001600068694600F004000590C020009045
:101A30000220CDE9010503200390082004901448FA
:101A4000FFF7D8FA144C134820608005C4E901055B
:101A50004FF48060C4E903506561A561E5612562CA
:101A600020466562FFF74AFA08B1FFF756F874633B
:101A7000002211464720A663FFF71AFC4720FFF714
:101A800009FC06B070BD000000140140443802405B
:101A90000008024028640240B80000202DE9F84305
:101AA000044690F83A00994616460D46202852D131
:101AB000BDB1B6B194F8380001284CD0012084F8AB
:101AC00038000027E763222084F83A002C34FFF71F
:101AD00081FB24F8026B804624F80A6B04F83879FD
:101AE00031E00120BDE8F883E08D401EE085A0686C
:101AF0004346B0F5805F4FF000024FF020012046D2
:101B0000CDF8009004D000F0FEFC98B10320E9E786
:101B100000F0F9FC0028F9D120690028206840680D
:101B200003D0C1B225F8011B0DE0C0F3080125F870
:101B3000021B08E0206900282068406801D000F0FE
:101B40007F0005F8010BE08D0028CDD1202084F81E
:101B50003A000020C6E70220C4E770477047FEE75E
:101B600010B5274C002202212046FFF72DFB012251
:101B700080212046FFF728FB002208212046FFF79E
:101B800023FB002210212046FFF71EFB002220210C
:101B90002046FFF719FB002240212046FFF714FBE7
:101BA000002280212046FFF70FFB1420FFF710FAD8
:101BB000012280212046FFF707FB00220821204652
:101BC000FFF702FB002210212046FFF7FDFA00225A
:101BD00020212046FFF7F8FA012240212046FFF796
:101BE000F3FA002280212046FFF7EEFA1420FFF7D7
:101BF000EFF920460122BDE810400221FFF7E4BAC8
:101C0000000C024010B56420FFF7E2F9ED4C002211
:101C100002212046FFF7D8FA012280212046FFF753
:101C2000D3FA002208212046FFF7CEFA0022102125
:101C30002046FFF7C9FA012220212046FFF7C4FA07
:101C4000012240212046FFF7BFFA002280212046D2
:101C5000FFF7BAFA1420FFF7BBF9012280212046D2
:101C6000FFF7B2FA002208212046FFF7ADFA002262
:101C700010212046FFF7A8FA012220212046FFF775
:101C8000A3FA012240212046FFF79EFA002280217C
:101C90002046FFF799FA1420FFF79AF901228021D4
:101CA0002046FFF791FA002208212046FFF78CFA20
:101CB000002210212046FFF787FA0122202120462A
:101CC000FFF782FA012240212046FFF77DFA002229
:101CD00080212046FFF778FA1420FFF779F90122D6
:101CE00080212046FFF770FA002208212046FFF7E6
:101CF0006BFA002210212046FFF766FA012220210C
:101D00002046FFF761FA002240212046FFF75CFAE7
:101D1000002280212046FFF757FA1420FFF758F9D8
:101D2000012280212046FFF74FFA00220821204699
:101D3000FFF74AFA002210212046FFF745FA012258
:101D400020212046FFF740FA002240212046FFF7DD
:101D50003BFA002280212046FFF736FA1420FFF7D5
:101D600037F9012280212046FFF72EFA01220821AF
:101D70002046FFF729FA002210212046FFF724FA17
:101D8000002220212046FFF71FFA00224021204692
:101D9000FFF71AFA002280212046FFF715FA1420D7
:101DA000FFF716F9012280212046FFF70DFA0022E5
:101DB00008212046FFF708FA002210212046FFF7ED
:101DC00003FA002220212046FFF7FEF900224021DD
:101DD0002046FFF7F9F9002280212046FFF7F4F9A9
:101DE0001420FFF7F5F8012280212046FFF7ECF9D7
:101DF000012208212046FFF7E7F9002210212046A2
:101E0000FFF7E2F9002220212046FFF7DDF900224A
:101E100040212046FFF7D8F9002280212046FFF715
:101E2000D3F91420FFF7D4F8012280212046FFF7D0
:101E3000CBF9002208212046FFF7C6F90022102125
:101E40002046FFF7C1F9002220212046FFF7BCF908
:101E5000002240212046FFF7B7F9002280212046CA
:101E6000FFF7B2F91420FFF7B3F8012280212046D2
:101E7000FFF7AAF9002208212046FFF7A5F9002262
:101E800010212046FFF7A0F9002220212046FFF76D
:101E90009BF9012240212046FFF796F9002280217C
:101EA0002046FFF791F91420FFF792F801228021D4
:101EB0002046FFF789F9002208212046FFF784F920
:101EC000002210212046FFF77FF900222021204622
:101ED000FFF77AF9002240212046FFF775F900222A
:101EE00080212046FFF770F91420FFF771F80122D6
:101EF00080212046FFF768F9002208212046FFF7DD
:101F000063F9012210212046FFF75EF9012220210A
:101F10002046FFF759F9002240212046FFF754F9E7
:101F2000002280212046FFF74FF91420FFF750F8D8
:101F3000012280212046FFF747F900220821204690
:101F4000FFF742F9002210212046FFF73DF9002259
:101F500020212046FFF738F9002240212046FFF7D4
:101F600033F9002280212046FFF72EF91420FFF7D5
:101F70002FF8012280212046FFF726F901220821AF
:101F80002046FFF721F9012210212046FFF71CF916
:101F9000012220212046FFF717F901224021204687
:101FA000FFF712F9002280212046FFF70DF91420D7
:101FB000FFF70EF820460122BDE810400221FFF78E
:101FC00003B90000000C024070B5384D04460122F0
:101FD00002212846FFF7F8F8012280212846FFF762
:101FE000F3F8200601D5012200E00022082128464E
:101FF000FFF7EAF8600601D5012200E00022102177
:102000002846FFF7E1F8A00601D5012200E00022F2
:1020100020212846FFF7D8F8E00601D5012200E08C
:10202000002240212846FFF7CFF8002280212846D1
:10203000FFF7CAF80120FEF7CBFF012280212846D6
:10204000FFF7C2F8200701D5012200E00022082195
:102050002846FFF7B9F8600701D5012200E0002209
:1020600010212846FFF7B0F8A00701D5012200E0B3
:10207000002220212846FFF7A7F8E00701D001221F
:1020800000E0002240212846FFF79EF80022802130
:102090002846FFF799F80120FEF79AFF2846BDE889
:1020A000704000220221FFF78FB80000000C0240B0
:1020B00010B588B00446411C8DED000B04A202A8A7
:1020C00000F05CFA214602A800F004F808B010BD48
:1020D0002566000070B50D460646002403E0305D1D
:1020E000FFF772FF641CAC4201DA082CF7DB082D05
:1020F00002DD022000F088FF082403E0305DFFF7D6
:1021000063FF641CAC42F9DB70BD00007FB50024A6
:10211000154800940194029412490394C0E90014F4
:102120004FF0807104618160047680F820400F498F
:10213000C0E90A140125C561C46080F830404561DA
:10214000FEF7A0FD08B172B6FEE70320CDE9000559
:10215000694602940448FEF7E3FC002801D072B6F9
:10216000FEE77FBD00200140300000200100000F8D
:10217000F0B587B014216846FEF76EF821480024B8
:10218000016841F001010160016801F00101059160
:10219000016841F002010160016801F0020105914E
:1021A000016841F004010160016801F0040105913A
:1021B000016841F0080101600068134E00F008005A
:1021C00044F281050590002229463046FEF7FCFFC7
:1021D0000E4F0022FA213846FEF7F6FF0095012542
:1021E000CDE90154694630460394FEF703FFFA2017
:1021F0000090CDE90154694638460394FEF7FAFE93
:1022000007B0F0BD3038024000040240000C02402C
:10221000FEE7FEE770477047FEF7E2BF10B592B0E9
:1022200030216846FEF718F814210CA8FEF714F8C0
:1022300018480024016841F080510160006800F0F6
:10224000805011901448016821F4404141F48041CC
:1022500001600068069400F4404011900220009054
:1022600001200390102004906846FFF73FF908B161
:1022700072B6FEE70F20CDE90C040E940F940021F6
:102280000CA81094FFF746F8002801D072B6FEE7BC
:1022900012B010BD4038024000700040054801688F
:1022A00041F47001016003494FF00060803908601B
:1022B0007047000088ED00E010B5806B0021C185FB
:1022C000C184FFF7D5FA10BD0168CA6822F4907284
:1022D000CA6001684A6922F001024A61202180F83F
:1022E0003A10704710B590F83A10222901D0022018
:1022F00010BD8168B1F5805F11D0016900290168C6
:102300001FD0496801F07F03816A4A1C82620B700A
:10231000C18D491E0904090CC18518D02BE0026942
:10232000816A002A0268526805D0D2B20A80816AA6
:10233000491C8162ECE7C2F308020A80816A891CA9
:10234000F7E74A68816A4B1C83620A70E0E701681C
:10235000CA6822F02002CA600168CA6822F480724A
:10236000CA6001684A6922F001024A61202180F8AE
:102370003A10FFF7F2FB002010BD00002DE9F041FC
:10238000044600680169E26821F44051114301618B
:102390002169A068E2690843616911430843216823
:1023A000CA6849F20C639A430243CA6020684169D3
:1023B000A26921F4407111434161E0691927642544
:1023C0003226B0F5004F354A354920684FF00008F5
:1023D00006D0884201D0904236D1FFF745F835E06B
:1023E000884201D0904202D1FFF73EF801E0FFF7AA
:1023F0002BF861684A18A0FB070148EB0803FDF7BA
:10240000F3FE0146B0FBF5F00201B1FBF5F06FF011
:102410001803584301EB800006EBC000B0FBF5F059
:1024200000F0F80002EB4002B1FBF5F0584301EB7D
:10243000800006EBC000B0FBF5F000F0070021685B
:1024400010448860BDE8F081FEF7FEFF61688B0FE5
:102450008A00A0FB0701FDF7C7FE0146B0FBF5F0BF
:102460006FF01802504301EB800006EB0010B0FB48
:10247000F5F000F0F002B1FBF5F002EB0012B1FB59
:10248000F5F06FF01803584301EB800006EB0010E5
:10249000B0FBF5F000F00F00D1E7000000140140A0
:1024A0000010014090F83910212901D00220704716
:1024B0008168B1F5805F016A0BD04A1C0262026834
:1024C00009785160C18C491E0904090CC1840ED0E1
:1024D00017E009880268C1F3080151600169002909
:1024E000016A02D0491C0162ECE7891CFBE7016824
:1024F000CA6822F08002CA600068C16841F04001E9
:10250000C160002070472DE9F041984617460E46FD
:102510000446069D1DE0681C1BD02DB1FEF75AFE37
:10252000A0EB0800A84214D92068C16821F4D0713A
:10253000C1602068416921F001014161202084F8D7
:10254000390084F83A00002084F838000320BDE800
:10255000F0812068006836EA000004D00020B8420C
:10256000D9D00020F3E70120F9E700000148FFF788
:1025700081B9000078000020FEE700000FB47CB5B0
:102580000C0009AD01D0611E00E00021CDE9000181
:10259000064B6A462946089800F0F0F8002C02D055
:1025A000009A002111707CBC5DF814FB832E00089A
:1025B0000907090E002804DB00F1E02080F8001470
:1025C000704700F00F0000F1E02080F8141D704704
:1025D000004870472C00002002E008C8121F08C104
:1025E000002AFAD170477047002001E001C1121F94
:1025F000002AFBD1704700002DE9FF5F82B0002167
:10260000DDE90430020DDDF840B0034318D044F694
:102610001050A2F2FF3242431514119801281FD026
:10262000A5EB0B00401C5FEA000A4FF000064E4F7E
:10263000DFF83891B046504615D5CAF1000413E0D2
:10264000119801244AA3012801D16FEA0B010298D5
:10265000119AC0E90031C0E9024206B0BDE8F09F1E
:10266000CBF10000DFE704460021404A491842EB65
:102670000450CDE9001012E0E00707D032463B4697
:1026800040464946FDF7D2FE8046894632463B46E3
:1026900010461946FDF7CAFE06460F466410002C88
:1026A000EAD1DDE90401DDE90023BAF1000F06DA21
:1026B000FDF7BCFE42464B46FDF7B8FE05E0FDF7D0
:1026C00027FF42464B46FDF723FF04460E460022F5
:1026D000284BFEF70FF903D84FF0FF30014607E013
:1026E0000022254B20463146FDF7F9FDFEF7E9F8BB
:1026F000102409E0002C0ADB0A220023FDF774FDF8
:10270000039B30321A55641E50EA0102F2D1641C58
:10271000039AC4F111031444119A012A03D001222F
:1027200008430DD10AE0084304D000204FF0110BFC
:10273000119072E7A3EB0B056D1E0DE05B4504DD08
:102740004FF0000205F1010504E003DA4FF000024A
:10275000A5F10105002AECD002981199C0E90231D7
:10276000C0E9004579E70000000014400000F03F98
:10277000300000000000F0430000E03F2DE9FF4F73
:1027800095B09A46884606460025EEE1252877D181
:1027900000242746F94A0121039400E0044316F877
:1027A000013F203B01FA03F01042F7D130782A288C
:1027B00011D06FF02F033078A0F13002092A16D81B
:1027C000039A44F0020402EB820203EB420210443B
:1027D000761C0390EFE758F8042B0392002A03DAE3
:1027E000504244F40054039044F00204761C3078C4
:1027F0002E2816D116F8010F44F004042A280DD013
:102800006FF02F023078A0F13003092B09D807EBC5
:10281000870302EB4303C718761CF3E758F8047BE1
:10282000761C30786C280FD006DC4C2817D068282E
:102830000DD06A2814D104E0742810D07A280FD162
:102840000DE044F400140AE044F4801401E044F480
:1028500040147278824202D104F58014761C761CF2
:10286000307866280BD013DC582877D009DC002894
:1028700075D04528F6D04628F4D047281AD193E1E0
:1028800018E0632835D0642879D0652812D18BE10F
:10289000702873D008DC6728F1D069286FD06E28C3
:1028A0000DD06F2806D1ACE073282CD0752874D0D9
:1028B000782853D05246179990476D1C54E1C4F3C1
:1028C0000250022809D003280DD0D8F8001004289F
:1028D0000DD00D6008F1040846E1D8F80010EA17A1
:1028E000C1E90052F6E7D8F800100D80F2E70D704C
:1028F000F0E718F8041B8DF8001000208DF8010097
:10290000EB46012003E058F804BB4FF0FF306107AD
:102910004FF0000102D40DE009F101018946B942EE
:102920000FDA8145F8DB1BF809100029F4D108E023
:1029300009F1010189468142FADB1BF809100029DF
:10294000F6D103985346A0EB090721463846179A5B
:1029500000F080FA284400EB090507E044E008E1B4
:102960000DE01BF8010B524617999047B9F1010988
:10297000F7D2534621463846179AF2E039E00A2149
:10298000C4F302524FF0000B0091022A06D058F80F
:10299000040BC117032A09D00AE023E008F107005D
:1029A00020F00702F2E80201904605E000B2C117EC
:1029B000042A01D140B2C117002906DA0A460021D3
:1029C000404261EB02012D2202E0220504D52B22B8
:1029D0008DF80420012203E0E20701D02022F7E76E
:1029E000914657E00A2100E010214FF0000B0091C2
:1029F0000BE010214FF0000B44F004040827009175
:102A000003E008204FF0000B0090C4F30252022AAA
:102A100005D058F8040B0021032A08D008E008F17B
:102A2000070020F00702F2E80201904603E080B2BE
:102A3000042A00D1C0B24FF0000922072AD532780B
:102A4000702A07D0DDF800C08CF0100C5CEA0B0C8B
:102A500005D00EE040228DF80420012208E050EA63
:102A6000010306D030238DF804308DF805200222B2
:102A70009146009B83F0080353EA0B030AD150EA06
:102A8000010201D1620705D530228DF804204FF0F4
:102A900001097F1E3278582A04D039A20C920CAA60
:102AA00002920BE03BA2F9E75B46009AFDF79CFB24
:102AB0000C9B9B5C029A521E0292137050EA010218
:102AC000F2D1029804A9081A00F1200B600702D580
:102AD00024F4803400E001275F4502DDA7EB0B0002
:102AE00000E0002000EB0B01009003984944401ADD
:102AF0000390E00306D453462146179A039800F04A
:102B0000A9F90544002706E001A85246C05D1799BF
:102B100090476D1C7F1C4F45F6DBE0030CD55346F8
:102B20002146179A039800F095F9054404E03020F7
:102B30005246179990476D1C0099481E0090002935
:102B4000F5DC08E00298029952460078491C02918F
:102B5000179990476D1CBBF10001ABF1010BF1DC43
:102B60005BE100F065F90544761C307800287FF4BD
:102B70000DAE19B02846BDE8F08F0000092801000D
:102B800030313233343536373839616263646566E3
:102B900000000000303132333435363738394142A5
:102BA0004344454600000000600700D4062708F1B2
:102BB000070020F00700F0E80223804603F0004CF5
:102BC0005FEA0C0001D097A009E0200501D596A08E
:102BD00005E0E00701D095A001E0AFF24C001390B2
:102BE000307823F0004365280CD006DC452809D056
:102BF00046281DD047287FD13BE0662818D067289B
:102C00007AD136E00021112F01DB112000E0781C81
:102C1000CDE9000104A90CA8FFF7EEFCDDE90D01E8
:102C20000C9A4FF0000B07F10109109200914EE051
:102C30004FF000400097CDE9011004A90CA8FFF760
:102C4000DBFCDDE90D020C9B0F994FF0000B914668
:102C50001093009211B9791C00EB0109B7EB090040
:102C600003D4C0F1FF3B07F10109A9EB0700019074
:102C700042E0012F00DA01270021112F01DD112090
:102C800000E03846CDE9000104A90CA8FFF7B4FC28
:102C9000DDE90D010C9A00914FF0000BB94610923E
:102CA00021070FD4009A4A4503DA914601E0A9F1C1
:102CB0000109B9F1010F05DD109AA9F10101515C7B
:102CC0003029F4D0B84202DA10F1040F03DA0121FE
:102CD000CDE9011010E0002803DC8344A9EB0001DA
:102CE00002E0411C494500DD8946A0EB0B00401C79
:102CF00001904FF000400290200705D4019848450C
:102D000002DB4FF0FF30019000208DF84B0002985D
:102D10000DF14B07B0F1004F25D002200C902B2075
:102D20000D90029800280CDA404202902D200D9060
:102D300007E00A210298FDF796FC3031029007F86F
:102D4000011D0C99481E0C900029F2DC0298002805
:102D5000EFD1791E0D980870307800F0200040F017
:102D6000450007F8020D11A8C01BC01D0290139862
:102D7000007800B1012000EB0901019801EBE0713E
:102D8000029801440398401A401E0390E00306D4C1
:102D900053462146179A039800F05CF805441398AF
:102DA000007818B15246179990476D1CE00323D55F
:102DB00053462146179A039800F04CF805441BE04F
:102DC000BBF1000F07DB0098584504DD10981799F8
:102DD00010F80B0001E017993020524690470198F7
:102DE0000BF1010B401E05F10105019004D12E20CD
:102DF0005246179990476D1CB9F10001A9F10109DC
:102E0000DEDC05E017F8010B5246179990476D1C60
:102E10000299481E02900029F4DC53462146179A75
:102E200003989EE62D0000002B000000200000000B
:102E30002DE9F041044600251E461746880404D4B7
:102E400005E039462020B0476D1C641EF9D52846A0
:102E5000BDE8F0812DE9F041044600251E4690466C
:102E6000C80301D5302700E02027880404D505E0F9
:102E700041463846B0476D1C641EF9D52846BDE86A
:102E8000F0814A68002A06D00A68531C0B60107053
:102E90004868401E4860704708B5FEF7A9F9FFF77B
:102EA000BDF9FFF765F946480024016841F4800147
:102EB00001600068224600F480000090214639201D
:102EC000FEF7F6F93920FEF7E5F9FFF71FF93E485E
:102ED0003C4901604FF41651C0E901140C21C46053
:102EE000C0E904418461C461FEF74EFD08B172B6C9
:102EF000FEE7FEF787FE012000F086F8082133A0E8
:102F0000FFF7E8F8344D42F20F786E1DA5F110047A
:102F10004FF47A77FEF724FE3B4605222E492A48D5
:102F2000FEF7BCFD68783070A8787070E878B070F3
:102F300029492879F070091F0A2201F10900FDF7DB
:102F400096F92060E168097811B1C4F8008001E0C9
:102F5000404502D1032121A02BE06060FDF747FB33
:102F60009FED1F1B53EC112BFDF760FA9FED1E1B0D
:102F700053EC112BFDF75AFA9FED1D1B53EC112B4F
:102F8000FDF74EFA9FED1C1B53EC112BFDF7C0FA19
:102F9000FDF74DFBA060022119A0FFF79BF8A06888
:102FA000FDF732FB41EC100B0420FFF781F8022102
:102FB00014A0FFF78FF83846FEF70AF8AAE70000DA
:102FC00030380240001401407800002053746172D0
:102FD00074696E6700000000100000204552520026
:102FE0006666666666660A40000000000000503FA4
:102FF000000000000000E03F7B14AE47E17A843F10
:10300000543A00002043000070B52E4C05460022C3
:1030100002212046FEF7D8F8012D4FF001024FF0B3
:103020008001204645D0FEF7CFF801220821204636
:10303000FEF7CAF8012210212046FEF7C5F800224B
:1030400020212046FEF7C0F8002240212046FEF74E
:10305000BBF8002280212046FEF7B6F81420FDF7C9
:10306000B7FF012280212046FEF7AEF8002208219A
:103070002046FEF7A9F8002210212046FEF7A4F80A
:10308000002220212046FEF79FF800224021204602
:10309000FEF79AF8002280212046FEF795F80120DD
:1030A000FDF796FF2046BDE8704001220221FEF7A1
:1030B0008BB8FEF789F8012208212046FEF784F834
:1030C0000022B8E7000C0240000610160006101699
:1030D00000000000000000000102030406070809C8
:1030E0000000000001020304004040404040404016
:1030F00040404141414141404040404040404040CB
:10310000404040404040404040050202020202026E
:1031100002020202020202020220202020202020BD
:1031200020202002020202020202909090909090D1
:10313000101010101010101010101010101010108F
:103140001010101002020202020288888888888803
:1031500008080808080808080808080808080808EF
:10316000080808080202020240000000E9300008D6
:10317000903100080000002030000000D825000831
:10318000C031000830000020E8040000E8250008F5
:10319000000000000000000000000000000000002F
:1031A000000000000000000000000000010000001E
:1031B00010000000000000000024F40000000000E7
:04000005080001AD41
:00000001FF
