:020000040800F2
:10000000A8040020AD0100084F160008E7150008FD
:100010004D160008BD080008811800080000000007
:10002000000000000000000000000000531600085F
:10003000BF0800080000000051160008551600080F
:10004000C7010008C7010008C7010008C701000870
:10005000C7010008C7010008C7010008C701000860
:10006000C7010008C7010008C7010008C701000850
:10007000C7010008C7010008C7010008C701000840
:10008000C7010008C7010008C70100080000000000
:10009000000000000000000000000000C701000890
:1000A000C7010008C7010008C7010008C701000810
:1000B000C7010008C7010008C7010008C701000800
:1000C000C7010008C7010008C7010008C7010008F0
:1000D000C7010008C7010008C701000800000000B0
:1000E000C7010008C7010008C701000800000000A0
:1000F000000000000000000000000000C701000830
:1001000000000000C7010008C7010008C70100087F
:1001100000000000000000000000000000000000DF
:10012000C7010008C7010008C7010008C70100088F
:10013000C7010008000000000000000000000000EF
:10014000000000000000000000000000C7010008DF
:10015000C7010008C7010008C7010008C70100085F
:10016000C7010008C70100080000000000000000EF
:10017000000000000000000000000000000000007F
:1001800000000000C701000800000000000000009F
:10019000C7010008DFF810D000F0EAFA0048004775
:1001A0004D1A0008AFF30080A804002006488047DD
:1001B00006480047FEE7FEE7FEE7FEE7FEE7FEE74C
:1001C000FEE7FEE7FEE7FEE7D91600089501000806
:1001D0002DE9F05F0546002092469B46884606467C
:1001E000814640241BE0284641464746224600F00F
:1001F00008FA53465A46C01A914110D31146184680
:10020000224600F0EFF92D1A67EB01084F4622460F
:100210000120002100F0E6F917EB00094E41201EF5
:10022000A4F10104DFDC484631462A464346BDE8D6
:10023000F09FD2B201E000F8012B491EFBD27047BB
:100240000022F6E710B513460A4604461946FFF7A2
:10025000F0FF204610BD2DE9FE4F804681EA0300E5
:10026000C00F0C46009021F0004123F00045B8EB90
:100270000200A94105D24046214690461C460B4645
:10028000024623F00040104347D0270DC7F30A0071
:10029000C3F30A510290401A019040286BDAC3F36D
:1002A000130040F4801B0098924620B10023D2EB4B
:1002B000030A63EB0B0B01985946C0F1400250460C
:1002C00000F090F906460D4650465946019A00F056
:1002D000A8F910EB08006141002487EA115284EA72
:1002E000E7731A4340D0009A62B3019A012A4FEA99
:1002F000075215DC001B61EB02014FF0004202EADD
:100300000752CDE90042001C41F5801132462B46D0
:1003100000F0DFF903B0BDE8F08F40462146F9E771
:10032000001B61EB0201001C41F5801300185B41CA
:100330002018A2F5001747EB030140EAD570B61963
:100340006D4111E06D084FEA360645EAC0754FEA87
:100350000752001B61EB0201001C41F580114908A6
:100360004FEA30000019514132462B4603B0BDE838
:10037000F04F00F09FB90098012240000023D0EB1D
:10038000020263EBE073009821464FEAE074B8EB99
:10039000000061EB0401E9E783F000435BE781F0D3
:1003A000004158E72DE9FE4F81EA030404F00044C0
:1003B00021F0004100944FF0000B23F0004350EA7D
:1003C00001045ED052EA03045BD0C3F30A54C1F3C4
:1003D0000A552C44A4F2F3340194A0FB0254C1F357
:1003E000130141F48011C3F3130343F4801301FBA1
:1003F000024400FB034E840A970A44EA815447EA08
:100400008357A4FB076802958D0A05FB07854FEA11
:10041000932C04FB0C542705029D4FEA065847EA2B
:100420001637B5EB08056EEB070C870E920E47EA00
:10043000811742EA8312A7FB0201B6EB0B0164EBC2
:1004400000042B0D43EA0C335E1844EB1C50DA46D3
:100450005146E7FB0201C5F313044FEA0B3343EAAD
:1004600014534FEA0432019C43EA0603A4F10C043E
:100470000294009CCDE900B400F02BF903B0BDE874
:10048000F08F00200146F9E72DE9F04D81EA0304E1
:1004900004F0004B21F0004514464FF0000A23F011
:1004A000004150EA050220D054EA01021DD0C5F3F4
:1004B0000A570246C5F31303C1F31300C1F30A56EA
:1004C00040F4801543F48013A7EB0608101BD646B2
:1004D00008F2FD3873EB050002D308F1010801E0D2
:1004E00092185B41B8F1000F03DA00200146BDE825
:1004F000F08D00204FF48011064684460EE0171B55
:1005000073EB050705D3121B63EB050306434CEAA7
:10051000010C49084FEA300092185B4150EA01078C
:10052000EDD152EA030012D082EA040083EA050109
:10053000084305D0101BAB4106D20122002306E080
:1005400000224FF0004302E06FF0010253101AEB5B
:1005500006004CEB085110EB0A0041EB0B01BDE823
:10056000F04D00F0A7B80EB540F2334102910021E2
:10057000CDE900110A460B4600F0ABF803B000BD10
:1005800001F0004330B421F0004150EA010206D0EE
:100590000A0DA2F56072C1F31301002A02DC30BC1F
:1005A00000207047440F44EAC104C100E01830BC89
:1005B00000EBC25000F047B830B50B4601460020B2
:1005C0002022012409E021FA02F59D4205D303FA15
:1005D00002F5491B04FA02F52844151EA2F1010296
:1005E000F1DC30BD202A04DB203A00FA02F10020C1
:1005F00070479140C2F1200320FA03F31943904061
:100600007047202A04DB203A21FA02F000217047CB
:1006100021FA02F3D040C2F120029140084319466A
:100620007047202A06DBCB17203A41FA02F043EA52
:10063000E07306E041FA02F3D040C2F1200291409B
:100640000843194670470029A8BF7047401C49005D
:1006500008BF20F00100704710B4B0FA80FC00FA27
:100660000CF050EA010404BF10BC704749B1CCF152
:10067000200421FA04F411FA0CF118BF01212143DE
:100680000843A3EB0C01CB1D4FEA00614FEA102099
:1006900042BF002010BC704700EBC350104400293B
:1006A000A4BF10BC7047401C490008BF20F00100E7
:1006B00010BC704710B5141E73F1000408DA401C1A
:1006C00041F1000192185B411A4301D120F0010071
:1006D00010BD2DE9F04D92469B4611B1B1FA81F261
:1006E00002E0B0FA80F220329046FFF77BFF04462A
:1006F0000F4640EA0A0041EA0B0153465A460843B6
:1007000013D0114653EA010019D0C8F140025046F7
:10071000FFF777FF05460E46504659464246FFF71B
:1007200061FF084305D0012004E020463946BDE8BA
:10073000F08D0020054346EAE0762C4337430A98C3
:100740006305E40AA0EB08000022FD0A44EA4754CE
:100750000A3002D500200146E9E701051019694178
:10076000DDE9084500196941BDE8F04DA2E7000048
:10077000064C074D06E0E06840F0010394E80700EE
:1007800098471034AC42F6D3FFF708FD701B000801
:10079000901B0008464910B54A6822F440324A606E
:1007A0004A6843681A434A6001684A6822F48072C2
:1007B0004A6001684A68036942EA03224A600168A4
:1007C0004A6822F040724A6001684A6883681A43A6
:1007D0004A6001688A6822F400628A6001688A6857
:1007E000C3681A438A60816A6FF07062D1420168FF
:1007F0008A6822F070628A6001688A680CD0836A15
:100800001A438A6001688A6822F040528A6001684F
:100810008A68C36A1A4301E022F040528A60016884
:100820008A6822F002028A6001688A68037E42EACE
:1008300043028A6090F82010002901684A680FD0AE
:1008400042F400624A6001684A6822F460424A60E9
:1008500001684A68174C436A04EB43331A4301E0CA
:1008600022F400624A600168CA6A22F47002CA6215
:100870000168CA6A838B104C04EB03531A43CA62A3
:1008800001688A6822F400728A6001688A6890F8B8
:10089000303042EA43228A6001688A6822F480622A
:1008A0008A6001688A68406942EA8020886010BDD9
:1008B0000023014000E0FFFF0000F0FFFEE770476B
:1008C00078B50024009490F83C20012A19D0012228
:1008D00080F83C200A6807230568092A13D9EE68C6
:1008E0000A3A02EB420293409E43EE600B788A681C
:1008F0000A3B03EB43039A400368DD682A43DA604E
:1009000010E0022078BD2E6902EB420293409E4324
:100910002E610B788A6803EB43039A4003681D69D4
:100920002A431A614A681F23072A13D205686E6B8F
:10093000521E02EB820293409E436E630B790A883B
:100940005B1E92B203EB83039A4003685D6B2A43FC
:100950005A6327E005680D2A12D22E6BD21F02EBD4
:10096000820293409E432E630B790A88DB1F92B26A
:1009700003EB83039A4003681D6B2A431A6311E05B
:10098000EE6A0D3A02EB820293409E43EE620B79CF
:100990000A880D3B92B203EB83039A400368DD6A39
:1009A0002A43DA62164B0568144A9D4206D10D6847
:1009B000122D03D1556845F48005556005689D42A8
:1009C00018D10B68102B01D0112B13D1536843F4AD
:1009D00000035360096810290CD10A490A4A0968C2
:1009E000B1FBF2F101EB8101490000E0491E0091E9
:1009F0000029FBD180F83C40002078BD0023014055
:100A0000002001401800002040420F000068C06C28
:100A1000704770B504004FF0000503D0206C00262D
:100A200010B107E0012070BD204600F01DF866649B
:100A300084F83C60206CC00610D4206C20F48850F0
:100A400040F0020020642046FFF7A4FE6664206C9C
:100A500020F0020040F00100206400E0012584F84D
:100A60003C60284670BD000010B586B004461421D5
:100A70006846FFF7E5FB1149206888421CD1104801
:100A80000021026842F480720260006800F4807005
:100A900005900B481438026842F0010202600068B9
:100AA00000F001000590012000900320CDE9010134
:100AB0006946044800F0CAF806B010BD00200140A5
:100AC00044380240000002402DE9F041044600682D
:100AD0000D4681684FF0000749050BD58068C005B9
:100AE00008D5206C40F02000206484F83C70012080
:100AF000BDE8F08100F074F906460FE0681C0DD0E7
:100B000025B100F06DF9801BA84207D9206C40F098
:100B10000400206484F83C700320E9E72068006842
:100B20008007EBD521686FF012000860206C40F45C
:100B3000007020642068816811F0405F13D1217E2D
:100B400089B9C16A11F4700F02D0806840050AD4D7
:100B5000206C20F480702064206CC00403D4206CCE
:100B600040F0010020640020C2E7000018B5002119
:100B7000009190F83C20012A07D0012280F83C2007
:100B800002689368DB0702D011E0022018BD936869
:100B900043F001039360204A204B1268B2FBF3F24A
:100BA00002EB420200E0521E0092002AFBD10268D2
:100BB0009368DB072DD0036C40F20164A34343F438
:100BC0008073036453685B0505D5036C23F40053FD
:100BD00043F480530364036CDB0404D5436C23F0BB
:100BE0000603436400E0416480F83C100C496FF058
:100BF0002203136049680068C90602D00949884287
:100C000007D1816811F0405F03D1816841F08041D4
:100C10008160002018BD00001800002040420F0035
:100C2000002301400020014070B5044600F0D8F8D0
:100C30000546601C02D004480078044400F0D0F857
:100C4000401BA042FAD370BD0C0000202DE9F84FE4
:100C500000224FF0010803254FF00F0E0B6808FA31
:100C600002F42340A34271D14E68012E05D0022E1A
:100C700003D0112E01D0122E15D18668570005FA27
:100C800007FC26EA0C06D1F80CC00CFA07FC4CEA6B
:100C9000060CC0F808C04668A6430C79C4F30014DB
:100CA000944034434460C668570005FA07FC8C68DA
:100CB00026EA0C06BC403443C4604C68022C01D0C8
:100CC000122C13D1D40800EB8404A346D4F820904E
:100CD00054074FEAD46A0EFA0AF629EA06090E69A1
:100CE00006FA0AF646EA0906CBF8206004680E798F
:100CF00024EA0C0406F00306BE40264306604C6856
:100D0000E40056D52E4C266846F4804626602468BA
:100D100022F0030604F4804400942A4C3444A44690
:100D2000D4F808489607370F0EFA07F6B443264E54
:100D3000B04201D1002615E0244EB04201D1012677
:100D400010E0234EB04202D102260BE031E0214EEA
:100D5000B04201D1032605E01F4EB04201D1042666
:100D600000E00726BE402643CCF808681B4E3468D6
:100D70004F689C43FF0300D51C433460174E361D5B
:100D800034684F689C43BF0300D51C433460134E46
:100D9000083634684F689C43FF0200D51C4334601A
:100DA0000E4E0C3634684F689C43BF0200D51C437E
:100DB0003460521C102AFFF451AFBDE8F88F0000D8
:100DC000443802400030014000000240000402406C
:100DD00000080240000C024000100240003C0140AC
:100DE00001488068704700000C00002002488168BC
:100DF00002781144816070470C0000200B4810B548
:100E0000016841F400710160016841F48061016092
:100E1000016841F480710160032000F061F8002056
:100E200000F006F800F024F8002010BD003C02405D
:100E300070B50D4D04464FF47A712878B1FBF0F08F
:100E40000A490968B1FBF0F000F0F6FA48B9102C35
:100E500007D200222146501E00F022F800206C60CC
:100E600070BD012070BD00000C00002018000020A3
:100E70000A4808B5016841F480410160006800F447
:100E8000804000900548001F016841F080510160DA
:100E9000006800F08050009008BD00004438024017
:100EA000F0B40E4B1B680C46C3F30223C3F10705D5
:100EB000042D00D90425191D072901D2002300E0C3
:100EC000DB1E012606FA05F1491E214099409E408D
:100ED000761E16403143F0BC00F0E8BC0CED00E09B
:100EE000064900F0070208684FF6FF03184040EA81
:100EF0000220034A10430860704700000CED00E038
:100F00000000FA052DE9F0470E46050065D0DFF830
:100F10001481D8F80000F7B200F00F00B04207D2F9
:100F200088F80070D8F8000000F00F00B04254D1EB
:100F300028683D4C810712D5400703D5206840F44E
:100F4000E05020602878000703D5206840F4604016
:100F500020602068A96820F0F0000843206028780D
:100F6000C0072DD0304968680839012812D00228FE
:100F700013D0032811D00968890700292DDA2168C8
:100F800021F0030101432160FFF72AFF814641F26E
:100F9000883A0EE009688903EFE709688901ECE700
:100FA000FFF71EFFA0EB0901514502D90320BDE860
:100FB000F0872068696800F00C00B0EB810FEFD17A
:100FC000D8F80010404601F00F01B14207D9077070
:100FD000006800F00F00B04201D00120E7E7287858
:100FE000400705D52068E96820F4E05008432060F8
:100FF0002878000706D52068296920F4604040EA77
:10100000C100206000F038F82168084AC1F30311DC
:10101000515CC8400649086006480068FFF708FFB1
:101020000020C4E7003C024008380240581B00087A
:1010300018000020100000200448054900680968D5
:10104000044AC1F38221515CC84070471800002057
:1010500008380240681B0008044805490068096810
:10106000044AC1F34231515CC84070471800002067
:1010700008380240681B0008154810B5006810F0D9
:101080000C02144813D01449042A0FD0082A0ED198
:101090000F4C241F2268236802F03F025B0207D531
:1010A0002068C0F38810A0FB010106E0084610BDCF
:1010B0002168C1F38811A1FB00010023FFF788F824
:1010C0002168C1F30141491C4900B0FBF1F010BD9A
:1010D000083802400024F40040787D012DE9F84FE3
:1010E00004006ED02078DFF83C93C007A9F1040516
:1010F0004AD009F104000168C1F38101012908D037
:101100000068C0F3810002280AD1D9F8000040022B
:1011100006D52868800337D560680028E1D033E021
:101120006068B0F5803F10D0B0F5A02F286810D0CF
:1011300020F480302860286820F4802028606068CF
:10114000A8B1FFF74DFE06460DE0286840F4803058
:10115000F4E740F480202860F7E700BFFFF740FE87
:10116000801B642873D828688003F7D50CE0FFF74C
:1011700037FE064605E000BFFFF732FE801B6428FD
:10118000F0D828688003F7D42078DFF89C828007A5
:101190004FF0000A3ED5A348001D016811F00C0F66
:1011A00008D00068C0F3810002280BD1D9F80000F4
:1011B000400207D42868800716D5E068012800D1CE
:1011C00012E02BE1E068B8B10120C8F80000FFF799
:1011D00007FE064605E000BFFFF702FE801B02285F
:1011E000C0D828688007F7D52868216920F0F80062
:1011F00040EAC10028600DE0C8F800A0FFF7F0FD4C
:10120000064604E0FFF7ECFD801B02281FD8286883
:101210008007F7D42078000722D5824E8348616981
:10122000703671B101210160FFF7DAFD074604E075
:10123000FFF7D6FDC01B022809D830688007F7D514
:101240000EE0C0F800A0FFF7CBFD074605E082E006
:10125000FFF7C6FDC01B02287DD830688007F7D491
:101260002078400768D5DFF8BCB100270BF13C0BB4
:10127000DBF80000C0000BD4DBF8001041F0805117
:10128000CBF80010DBF80000012700F08050009040
:10129000674E3068C00510D4306840F4807030600C
:1012A000FFF79EFD009005E0FFF79AFD0099401AB8
:1012B000022850D83068C005F6D55A4EA0686C3662
:1012C00001280FD00528306810D020F001003060D0
:1012D000306820F004003060A068B8B1FFF780FDEE
:1012E00000900FE0306840F00100F4E740F00400A7
:1012F0003060F7E7FFF774FD0099411A41F288303A
:10130000814266D830688007F4D50EE0FFF768FDAB
:10131000009007E0FFF764FD0099411A41F2883020
:10132000814256D830688007F4D42FB1DBF8001022
:1013300021F08051CBF80010A069C8B33949091DCC
:101340000968C1F3810102294AD00228504607D01A
:10135000C8F8600000E03CE0FFF742FD04463BE0D7
:101360004746C8F86000FFF73BFD064605E000BFB2
:10137000FFF736FD801B02282BD828688001F7D4A0
:10138000D4E907010843A16A2A4A490802EB01414E
:10139000626A41EA8211084394F82C1040EA016124
:1013A000C9F8001001203866FFF71AFD044606E070
:1013B00036E000BFFFF714FD001B022809D828689B
:1013C0008001F7D52CE000BFFFF70AFD001B0228C3
:1013D00002D90320BDE8F88F28688001F4D41FE00B
:1013E0000128F7D0D9F80000E26900F480019142A9
:1013F00014D1226A00F03F0191420FD147F6C0712B
:10140000626A0140914209D1A26A00F440319142DE
:1014100004D1E16A00F07060884201D00120D9E770
:101420000020D7E70438024000004742800E4742C0
:10143000007000400000FFFF10B5401EB0F1807F3B
:1014400001D3012010BD4FF0E02460610F2160172F
:1014500000F02CFA0020A06107202061002010BDC0
:1014600070B5040004D094F83900002510B106E0EE
:10147000012070BD84F83850204600F023F8242065
:1014800084F839002068C16821F40051C160204609
:1014900000F030F92068016921F490410161206871
:1014A000416921F02A0141612068C16841F400517D
:1014B000C160E563202084F8390084F83A000020F8
:1014C00070BD000010B586B0044614216846FEF7D2
:1014D000B7FE13492068884220D1124800210268D3
:1014E00042F020020260006800F0200005900D48E4
:1014F0001438026842F004020260006800F0040040
:101500000590C02000900220CDE901010320039046
:101510000820049069460448FFF798FB06B010BD08
:101520000014014044380240000802402DE9F8430D
:10153000044690F839001F4616460D46202850D123
:10154000B5B1AEB194F8380001284AD0012084F832
:1015500038004FF00008C4F83C80212084F839009E
:10156000FFF73EFCA6848146E68484F8388026E0B6
:101570000120BDE8F883E08C401EE084A0684B4663
:10158000B0F5805F4FF000024FF0800120460097D9
:1015900003D000F043F9E8B90DE000F03FF9C8B915
:1015A00028882168C0F308004860206908B16D1CD4
:1015B00005E0AD1C03E0216815F8010B4860E08CE4
:1015C0000028D8D14B46002240212046009700F049
:1015D00025F908B10320CCE7202084F83900002049
:1015E000C7E70220C5E7FEE77FB500241548009451
:1015F0000194029412490394C0E900144FF08071E1
:1016000004618160047680F820400F49C0E90A1423
:101610000125C561C46080F830404561FFF7F9F9E4
:1016200008B172B6FEE7CDE9004569460548029467
:10163000FFF746F9002801D072B6FEE77FBD000033
:10164000002001401C0000200100000FFEE7FEE723
:1016500070477047FFF7CABB10B592B0302168469B
:10166000FEF7EEFD14210CA8FEF7EAFD1848002451
:10167000016841F080510160006800F080501190D5
:101680001448016821F4404141F4004101600068C0
:10169000069400F440401190022000900120039035
:1016A000102004906846FFF719FD08B172B6FEE7F6
:1016B0000F20CDE90C040E940F9400210CA8109477
:1016C000FFF720FC002801D072B6FEE712B010BD73
:1016D00040380240007000400548016841F4700144
:1016E000016003494FF000608039086070470000D6
:1016F00088ED00E02DE9F041044600680169E268E8
:1017000021F44051114301612169A068E269084355
:101710006169114308432168CA6849F20C639A431E
:101720000243CA6020684169A26921F440711143F3
:101730004161E069192764253226B0F5004F354A2A
:10174000354920684FF0000806D0884201D0904209
:1017500036D1FFF781FC35E0884201D0904202D1BA
:10176000FFF77AFC01E0FFF767FC61684A18A0FB0D
:10177000070148EB0803FEF72BFD0146B0FBF5F02F
:101780000201B1FBF5F06FF01803584301EB800044
:1017900006EBC000B0FBF5F000F0F80002EB4002F1
:1017A000B1FBF5F0584301EB800006EBC000B0FB45
:1017B000F5F000F00700216810448860BDE8F08172
:1017C000FFF73AFC61688B0F8A00A0FB0701FEF768
:1017D000FFFC0146B0FBF5F06FF01802504301EB3F
:1017E000800006EB0010B0FBF5F000F0F002B1FB5A
:1017F000F5F002EB0012B1FBF5F06FF0180358435F
:1018000001EB800006EB0010B0FBF5F000F00F00DC
:10181000D1E7000000140140001001402DE9F04123
:10182000984617460E460446069D1DE0681C1BD0D0
:101830002DB1FFF7D5FAA0EB0800A84214D9206813
:10184000C16821F4D071C1602068416921F00101B3
:101850004161202084F8390084F83A00002084F89F
:1018600038000320BDE8F0812068006836EA0000F7
:1018700004D00020B842D9D00020F3E70120F9E7D6
:10188000FEE700000FB4084B10B504A902AA0398A4
:1018900000F02CF8044602A9002000F0D1F8204600
:1018A00010BC5DF814FB0000411A00080907090E7E
:1018B000002804DB00F1E02080F80014704700F0FD
:1018C0000F0000F1E02080F8141D704702E008C806
:1018D000121F08C1002AFAD170477047002001E0AA
:1018E00001C1121F002AFBD1704700002DE9FF4FF4
:1018F00089B09B460446002506E025280BD05A46B1
:101900000B999047641C6D1C20780028F5D10DB010
:101910002846BDE8F08F0027B8460122474900E07D
:10192000074314F8013F203B02FA03F00842F7D1C5
:1019300020782E2819D114F8010F47F004072A281F
:101940000ED06FF02F022078A0F1300109290CD8B9
:1019500008EB880102EB410100EB0108641CF2E78F
:101960000A98641C50F8048B0A9020780028CED086
:10197000642808D0692806D075281ED05A460B99CD
:1019800090476D1C58E00A994FF00A0901C90A9165
:10199000002802DA40422D2102E0390504D52B212E
:1019A0008DF82010012103E0F90704D02021F7E78A
:1019B0008A4608AE0DE00021FAE70A994FF00A09BD
:1019C00001C90A91F7E74946FEF7F6FD303106F8FE
:1019D000011D0028F7D1ADEB060000F120097807C2
:1019E00001D44FF00108C84502DDA8EB090000E072
:1019F00000208046002706E008A85A46C05D0B99E3
:101A000090476D1C7F1C5745F6DB04E030205A469A
:101A10000B9990476D1CB8F10001A8F10108F5DCA5
:101A200005E016F8010B5A460B9990476D1CB9F169
:101A30000001A9F10109F4DC641C65E70928010033
:101A40000A68531C0B601070704700002DED088B66
:101A500082B0FFF7D3F9FFF7FFFD3248002102689B
:101A600042F001020260026802F001020092026884
:101A700042F00402026000682B4A00F0040000906B
:101A80002A4802604FF41652C0E901210C22C160BD
:101A9000C0E904128161C161FFF7E2FC08B172B6CE
:101AA000FEE7FFF7A1FD224D9FED228B9FED239BCB
:101AB0009FED24AB9FED25BB4FF0FF361B48483808
:101AC000FFF754F8194831464838FEF7FDFF17482C
:101AD0004838FEF79BFF04466860FEF744FD53EC70
:101AE000182BFEF75FFC53EC192BFEF75BFC53EC55
:101AF0001A2BFEF751FC53EC1B2BFEF7C5FCFEF72F
:101B00003FFDA860224613A10948FFF7BBFE6423EE
:101B1000052207490548FFF709FD6420FFF784F80F
:101B2000CCE700003038024000140140640000207F
:101B3000000000206666666666660A4000000000D7
:101B40000000503F000000000000E03F7B14AE4763
:101B5000E17A843F256400000000000000000000DE
:101B60000102030406070809000000000102030443
:101B7000901B0008000000201C000000CC1800088A
:101B8000AC1B00081C0000208C040000DC180008BE
:101B90000000000000000000000000000100000044
:0C1BA00010000000000000000024F40011
:040000050800019559
:00000001FF
